:020000040800F2
:1000000070210020210200081B240008BD1E0008EA
:1000100019240008C3040008F528000800000000A7
:10002000000000000000000000000000890100083E
:10003000DD04000800000000CD010008F1250008E3
:100040003B0200083B0200083B0200083B0200089C
:100050003B0200083B0200083B0200083B0200088C
:100060003B0200083B0200083B0200083B0200087C
:100070003B0200083B020008C5040008D104000848
:100080003B0200083B0200083B0200083B0200085C
:100090003B0200083B0200083B0200083B0200084C
:1000A0003B0200083B0200083B0200083B0200083C
:1000B0003B0200083B020008992600083B020008AA
:1000C0003B0200083B0200083B0200083B0200081C
:1000D0003B020008E92800083B0200083B02000838
:1000E0003B0200083B0200083B02000800F002F857
:1000F00000F03AF80AA090E8000C82448344AAF188
:100100000107DA4501D100F02FF8AFF2090EBAE885
:100110000F0013F0010F18BFFB1A43F0010318473B
:10012000405A0000605A0000103A24BF78C878C1D5
:10013000FAD8520724BF30C830C144BF04680C60ED
:10014000704700000023002400250026103A28BF35
:1001500078C1FBD8520728BF30C148BF0B60704739
:100160001FB51FBD10B510BD00F045F91146FFF7D2
:10017000F7FF02F0E5FB00F063F903B4FFF7F2FFCD
:1001800003BC00F06BF90000224B19680868B0E866
:10019000F00F80F30988BFF36F8F4FF0000080F3FA
:1001A00011884EF00D0E70470000000006480068F0
:1001B000006880F3088862B661B6BFF34F8FBFF363
:1001C0006F8F00DF00BF00BF08ED00E0EFF3098094
:1001D000BFF36F8F0F4B1A6820E9F00F106008B55E
:1001E0004FF0500080F31188BFF34F8FBFF36F8F34
:1001F00003F068FA4FF0000080F31188BDE8084072
:1002000019680868B0E8F00F80F30988BFF36F8FB2
:10021000704700BF20000020EFF30580704700000A
:100220000948804709480047FEE7FEE7FEE7FEE78A
:10023000FEE7FEE7FEE7FEE7FEE7FEE704480549C6
:10024000054A064B7047000095260008ED0000089F
:10025000701B002070210020701D0020701D0020E8
:10026000032A40F2308010F0030C00F0158011F8E2
:10027000013BBCF1020F624498BF11F801CB00F8BA
:10028000013B38BF11F8013BA2F1040298BF00F80E
:1002900001CB38BF00F8013B11F0030300F0578099
:1002A000083AC0F0088051F8043B083A51F804CBF2
:1002B000A0E80810F5E7121D5CBF51F8043B40F8B8
:1002C000043BAFF30080D20724BF11F8013B11F8C3
:1002D00001CB48BF11F8012B24BF00F8013B00F807
:1002E00001CB48BF00F8012B704702F0FF0343EA3F
:1002F000032242EA024200F05EB84FF0000200B56D
:10030000134694469646203922BFA0E80C50A0E838
:100310000C50B1F12001BFF4F7AF090728BFA0E8E6
:100320000C5048BF0CC05DF804EB890028BF40F8B2
:10033000042B08BF704748BF20F8022B11F0804FF4
:1003400018BF00F8012B704770477047704710B511
:10035000203AC0F00B80B1E81850203AA0E81850BD
:10036000B1E81850A0E81850BFF4F5AF5FEA027C7E
:1003700024BFB1E81850A0E8185044BF18C918C0ED
:10038000BDE810405FEA827C24BF51F8043B40F88E
:10039000043B08BF7047D20728BF31F8023B48BF73
:1003A00011F8012B28BF20F8023B48BF00F8012BB1
:1003B00070474FF000020429C0F0128010F0030CC7
:1003C0003FF49DAFCCF1040CBCF1020F18BF00F854
:1003D000012BA8BF20F8022BA1EB0C01FFF78FBF68
:1003E0005FEAC17C24BF00F8012B00F8012B48BF55
:1003F00000F8012B7047754600F02CF8AE4605005A
:100400006946534620F00700854618B020B5FFF72F
:1004100015FFBDE820404FF000064FF000074FF0F9
:1004200000084FF0000B21F00701AC46ACE8C00912
:10043000ACE8C009ACE8C009ACE8C0098D4670471B
:1004400010B50446AFF300802046BDE81040FFF72A
:1004500094BE0000004870470C1B00200149182082
:10046000ABBEFEE7260002007047000070B50446F0
:1004700000688168C943C90717D1816821F001016B
:10048000816000F019FD05460AE000BF00F014FD90
:10049000401B022804D920688068C043C00706D0EA
:1004A00020688068C043C007F0D0002070BDA06AFB
:1004B00040F01000A062E06A40F00100E06201201C
:1004C00070BDFEE7014800F00FBB0000AC0100204A
:1004D000014800F009BB00006801002070472DE9C9
:1004E000F8431C464FF6FF78074615460E460B4666
:1004F000CDF8008000F0EEF83A462346314610462B
:10050000CDF8008000F0E6F8601E83B281B248F2B8
:100510001048781C80B22A46CDF8008000F0DAF846
:1005200044F2082923462A4619463846CDF8009059
:1005300000F0D0F8681E82B2711C89B280B22346E6
:10054000CDF8008000F0C6F82A4623463146104612
:10055000CDF8009000F0BEF8BDE8F88372B6FEE773
:100560002DE9FF4F83B089460446DDF840B0009086
:10057000A4E080283ED20D2804D0202808D92038B5
:1005800080B206E009F110001FFA80F9009C2EE00D
:100590000020DFF838A100264FF080080190019874
:1005A000002506EB001700BF1AF8071028FA05F01F
:1005B000014206D009EB060081B2601980B2059AAB
:1005C00009E0DDE90501884207D009EB060081B2A8
:1005D000601980B2069A00F0D2F86D1CEDB2082DB9
:1005E000E2D3761CF6B2102ED9D30834A4B20BF1A4
:1005F000010B63E04FF00008354808EB08119BF849
:10060000002010F8113093424DD100EB41000190D1
:1006100041789BF80100814245D100254FF0800AC6
:100620000198002600EB45072AFA06F0B978014246
:1006300006D009EB050081B2A01980B2059A09E045
:10064000DDE90501884207D009EB050081B2A01958
:1006500080B2069A00F093F8761CF6B2082EE3D327
:100660000026F9782AFA06F0014207D009EB0500C6
:1006700081B2A019083080B2059A0AE0DDE90501CF
:10068000884208D009EB050081B2A019083080B279
:10069000069A00F074F8761CF6B2082EE1D36D1CB1
:1006A000EDB2102DBCD308F101001FFA80F8B8F1AB
:1006B000320FA1D310340BF1020BA4B29BF800004F
:1006C00000287FF456AF07B0BDE8F08F5E41000808
:1006D000D04E00082DE9F84F1C4615460E468046C0
:1006E00001F071FDB5EB0805A4EB06044FF0FF30F7
:1006F00002D44FF0010B01E083466D42002C02DB77
:100700004FF0010901E08146644268004FEA440A63
:100710000090A54219DDAAEB0504002711E031463F
:1007200040460A9A00F02BF8002C04DB0098241AAB
:1007300006EB090086B208EB0B0054441FFA80F860
:100740007F1CAF42EBDDBDE8F88F0098051B00274A
:1007500012E0314640460A9A00F011F8002D05DB00
:1007600008EB0B00A5EB0A051FFA80F800987F1C28
:10077000054406EB090086B2A742EADDE3E710B5BF
:1007800014464A1C93B2421C92B201F0F1FC20467E
:10079000BDE8104001F094BBF8B50024009490F837
:1007A00024202546012A12D0012280F824204A68FC
:1007B0001F23072A0DD20668776B521E02EB8202B6
:1007C00093409F430B6893401F43776319E00220D7
:1007D000F8BD06680D2A0AD2376BD21F02EB8202DF
:1007E00093409F430B6893401F43376309E0F76AC8
:1007F0000D3A02EB820293409F430B6893401F43E4
:10080000F7620A68072306680A2A0AD3F7680A3AD1
:1008100002EB420293409F438B6893401F43F76073
:1008200008E0376902EB420293409F438B68934094
:100830001F4337610A68102A01D0112A20D1124BB8
:1008400002689A4217D193681B0219D4936843F443
:10085000000393600968102912D10C490C4A0968F9
:10086000B1FBF2F101EB8101490000E0491E00916A
:100870000029FBD104E0816A41F02001816201245A
:1008800080F824502046F8BD002401401C000020C0
:1008900040420F002DE9F0414FF0000704003D46B3
:1008A0007ED0A06A002628B9E66284F8246020463B
:1008B00000F07EF82046FFF7D9FDA16AC90600D4F2
:1008C00020B1A06A40F01000A06269E0A16A21F4A2
:1008D000885141F00201A1626268E169237B0A4309
:1008E00047EA43010A43A1684FF48077B94209D02F
:1008F000012907D05FF0000194F814C0BCF1010F8A
:1009000002D00AE03946F7E7F3B1A36A43F02003C7
:10091000A362E36A43F00103E3622368D3F804C0EF
:100920002CF4694C4CEA010CC3F804C021688B68B4
:10093000DFF870C003EA0C0313438B60A168B9426F
:100940000BD0012909D00CE0DFF85CC0A3690CEBE7
:1009500043330B4343F40061DFE7218A0D05A5F51E
:1009600080152168CB6A23F470032B43CB62216886
:1009700089680E4B1940914208D1E662A16A21F0C4
:10098000020141F00101A162BDE8F081A06A20F0FE
:10099000020040F01000A062E06A40F00100E06256
:1009A0000120F1E7FDF7E1FF00E0FFFFFE0E1FFF72
:1009B00000B585B00021009101910291039100687A
:1009C0000E49884218D10E48816941F40071816155
:1009D000816901F400710491816941F00401816130
:1009E0008069694600F00400049001200090032013
:1009F0000190044800F062F905B000BD00240140F8
:100A0000001002400008014010B590F821100022AB
:100A1000022905D00421816380F82020012010BD27
:100A200001680B6823F00E030B6001680B6823F06C
:100A300001030B6090F84030C46B012101FA03F30D
:100A4000636080F8211080F82020104610BD00005F
:100A500010B590F821100024022903D004218163ED
:100A600001243DE001680A6822F00E020A60016874
:100A70000A6822F001020A601A4A0168914201D113
:100A8000012121E0174A1432914201D110211BE0CB
:100A9000144A2832914201D1891515E0114A3C329D
:100AA000914201D189140FE00E4A5032914202D195
:100AB0004FF4803108E00B4A6432914202D14FF486
:100AC000801101E04FF08071064A083A516001211F
:100AD00080F82110002180F82010416B01B1884777
:100AE000204610BD080002402DE9F05FC16B0C6884
:100AF00001680B68D0F840C0042202FA0CF2494D9C
:100B0000DFF824A1494E4A4FDFF828B1DFF828E189
:100B100022422CD05A072AD50A68920603D40A68C2
:100B200022F004020A600168A94201D1042219E0FE
:100B3000514501D1402215E0B14202D14FF480620B
:100B400010E0B94202D14FF480420BE0594502D186
:100B50004FF4802206E0714502D14FF4800201E09B
:100B60004FF080622F4908394A60C16A3BE04FF07C
:100B7000020808FA0CF818EA040F4FF000094FF0C9
:100B8000010235D05FEA837832D50B689B0605D425
:100B90000B6823F00A030B6080F821200168A9424A
:100BA00001D1022219E0514501D1202215E0B142C4
:100BB00002D14FF4007210E0B94202D14FF400525A
:100BC0000BE0594502D14FF4003206E0714502D1E5
:100BD0004FF4001201E04FF00072124908394A60E8
:100BE00080F82090816A00291AD0BDE8F05F08479C
:100BF000082505FA0CF5254212D01B0710D50B6805
:100C000023F00E030B6090F84010C36B02FA01F161
:100C10005960826380F8212080F82090016BE2E720
:100C2000BDE8F09F080002401C0002403000024076
:100C300044000240580002406C00024030B528B326
:100C400008C8134914221944B1FBF2F18900C163A9
:100C500010498163022141771A6843F6F0718A4393
:100C6000D0E900142143D0E902452C432143046913
:100C700021434469214384692143114319600021C0
:100C80004163012242770177084630BD012030BD23
:100C9000F8FFFDBF0000024070B5044600F00CF9FB
:100CA0000546601C02D004480078044400F004F9B2
:100CB000401BA042FAD370BD100000202DE9F84F70
:100CC000DFF8B8910024A9F1040B23460F2709F19E
:100CD000040AABF1040EC9E00125A5402A40AA424E
:100CE0007DD1674ED1F804C0ACEB0608B44532D0D4
:100CF00014DCBCF1030F3AD009DCBCF1000F2AD0A0
:100D0000BCF1010F1CD0BCF1020F31D11DE0BCF1D0
:100D1000110F17D0BCF1120F2AD119E0B8F5881FB6
:100D200019D006DCB8F5803F15D0B8F5801F1FD16B
:100D300011E0B8F5001F0ED0B8F5041F18D10AE075
:100D4000CB6815E0CB681B1D12E0CB6808330FE0C1
:100D5000CB680C330CE08B682BB1012B4FF00803F0
:100D600003D0456104E0042302E0056100E00023B4
:100D7000FF2A01D8064601E000F104064FEA840587
:100D800001D9A5F12005D6F8008007FA05FC28EA6C
:100D90000C0803FA05F548EA0508C6F800804D6816
:100DA000ED0062D5374DAE6946F00106AE61AD6922
:100DB00024F0030605F001050095334D06EB050C04
:100DC000DCF80850A607360F07FA06F825EA0805EA
:100DD000DFF8B880404503D14FF0000817E044E049
:100DE000DFF8AC80404502D14FF001080FE0DFF89A
:100DF000A480404502D14FF0020808E0DFF8988057
:100E0000404502D14FF0030801E04FF0040808FA12
:100E100006F848EA0508CCF808804D68D9F8006063
:100E2000ED024D4601D5164300E096432E604D6815
:100E3000DAF80060AD02554601D5164300E096434E
:100E40002E604D68DBF80060AD035D4601D51643AA
:100E500000E096432E604D68DEF80060ED037546B5
:100E600001D5164300E096432E60641C0D682A46A7
:100E7000E5407FF431AFBDE8F88F00000804014081
:100E80000000111000100240000001400008014065
:100E9000000C01400010014000140140C26821EA2A
:100EA00002030A4043EA0241016170470AB101614D
:100EB00070470904FBE700000148806870470000A4
:100EC0001000002002488168027811448160704758
:100ED00010000020074810B5016841F010010160C2
:100EE000032000F095F80F2000F006F800F03EF81F
:100EF000002010BD0020024000B5014687B000224E
:100F00001E2000F065F81E2000F054F81348C16957
:100F100041F00401C161C06905A900F00400069018
:100F2000684600F093F900F0B1F90D494000B0FBBC
:100F3000F1F10D480B4A491E0260416040F2E73270
:100F40000021C0E90321816000F0C1FC10B1012043
:100F500007B000BD044800F0E9FCF9E700100240CA
:100F600040420F0000080040F00100200F4808B583
:100F7000816941F001018161816901F00101009104
:100F8000C16941F08051C161C069002200F0805008
:100F900000900F21901E00F01BF80548416821F0D9
:100FA000E06141F00071416008BD000000100240A6
:100FB00000000140002809DB00F01F0201219140E0
:100FC0004009800000F1E020C0F8001170470000E7
:100FD000F0B40E4B1B680C46C3F30223C3F10705A4
:100FE000042D00D90425191D072901D2002300E092
:100FF000DB1E012606FA05F1491E214099409E405C
:10100000761E16403143F0BC01F075BC0CED00E0DB
:10101000064900F0070208684FF6FF03184040EA4F
:101020000220034A10430860704700000CED00E006
:101030000000FA052DE9F84305460078354CC00755
:1010400054D0E0690026C00008D4E06940F0805028
:10105000E061E069012600F0805000902E480168B0
:10106000C90512D40168804641F480710160FFF720
:1010700023FF074605E000BFFFF71EFFC01B6428E3
:1010800023D8D8F80000C005F6D5206A10F44070C7
:1010900021D0A98801F4407181421CD0206A1F49E7
:1010A000012220F440700A6000220A602062C0071A
:1010B00011D0FFF701FF074641F2883808E000BF72
:1010C000FFF7FAFEC11B414502D90320BDE8F883B2
:1010D000206A8007F4D5206A696820F440700843CC
:1010E00020621EB1E06920F08050E061287880071E
:1010F00005D56068A96820F44040084360602878FE
:10110000C00605D56068E96820F480000843606087
:101110000020DBE700100240007000404004424223
:101120002DE9F0470F46050061D0434E306800F0CE
:101130000700B84209D2306820F007003843306019
:10114000306800F00700B84251D128683B4C810755
:1011500012D5400703D5606840F4E06060602878ED
:10116000000703D5606840F4605060606068A9685B
:1011700020F0F000084360602878C00728D0686835
:10118000012810D02168022810D0890700292EDA02
:10119000616821F0030101436160FFF78DFE804625
:1011A00041F288390DE021688903EFE78901EDE715
:1011B000FFF782FEA0EB0801494502D90320BDE8F4
:1011C000F0876068696800F00C00B0EB810FEFD128
:1011D000306800F00700B8420BD9306820F00700F3
:1011E00038433060306800F00700B84201D0012079
:1011F000E5E72878400705D56068E96820F4E060F5
:10120000084360602878000706D56068296920F4E3
:10121000605040EAC100606000F058F86168084A18
:10122000C1F30311515CC8400649086006480068D4
:10123000FFF762FE0020C2E70020024000100240DB
:10124000464100081C000020140000200F2202600C
:101250000C4A536803F003034360536803F0F00340
:101260008360536803F4E063C36052684FF4E06343
:1012700003EAD20202610448006800F00700086037
:101280007047000000100240002002400448054959
:1012900000684968044AC1F30221515CC8407047A4
:1012A0001C00002000100240564100080448054977
:1012B00000684968044AC1F3C221515CC8407047C4
:1012C0001C00002000100240564100080E4A5168E0
:1012D0000E4801F00C03042B11D0082B0FD10C4841
:1012E000C1F38343C903C05C0AD55168084AC1F3FE
:1012F0004041921E515C054A5043B0FBF1F07047EB
:1013000004494843704700000010024000127A0070
:101310003641000800093D002DE9F84F040070D067
:101320002078C04DC00749D06868C0F3810001280B
:1013300007D06868C0F38100022809D16868C0033B
:1013400006D52868800339D560680028E7D035E0E5
:101350006068B0F5803F0BD010B1B0F5A02F11D070
:10136000286820F480302860286820F4802002E07B
:10137000286840F480302860606890B1FFF79CFDD9
:1013800006460AE0286840F480202860F0E700BFA5
:10139000FFF792FD801B642873D828688003F7D577
:1013A0000CE0FFF789FD064605E000BFFFF784FD6E
:1013B000801B6428F0D828688003F7D420789A4EE0
:1013C00080074FF001094FF0000839D5686810F028
:1013D0000C0F07D06868C0F38100022809D1686843
:1013E000C00306D42868800714D52069012808D1D5
:1013F00010E02069B0B1C6F80090FFF75DFD074628
:1014000005E00AE1FFF758FDC01B0228C4D8286890
:101410008007F7D52868616920F0F80040EAC1002C
:1014200028600DE0C6F80080FFF746FD074604E09F
:10143000FFF742FDC01B022823D828688007F7D495
:10144000207800072CD57948A169D9B1C0F800905F
:10145000FFF732FD074604E0FFF72EFDC01B022810
:101460000FD8686A8007F7D571484FF4FA510068C1
:10147000B0FBF1F0009000BF0098411E0091FAD23D
:101480000EE080E0C0F80080FFF716FD074604E09C
:10149000FFF712FDC01B022875D8686A8007F7D4D1
:1014A0002078400760D5E8690027C00008D4E869C3
:1014B00040F08050E861E869012700F0805000901A
:1014C0005C480168C90513D40168834641F4807102
:1014D0000160FFF7F1FC824606E000BFFFF7ECFC7D
:1014E000A0EB0A0064284ED8DBF80000C005F5D553
:1014F000E06801280AD008B1052813D0286A20F036
:1015000001002862286A20F0040002E0286A40F006
:1015100001002862E06841F2883B98B1FFF7CCFCFB
:1015200082460BE0286A40F004002862EEE700BF24
:10153000FFF7C2FCA0EB0A0159455AD8286A800778
:10154000F6D50CE0FFF7B8FC824605E0FFF7B4FCE7
:10155000A0EB0A0159454CD8286A8007F6D41FB180
:10156000E86920F08050E861E06988B36968C1F3F8
:101570008101022944D00228C6F8608004D0FFF718
:101580009BFC044638E034E0FFF796FC074604E095
:10159000FFF792FCC01B02282BD828688001F7D4E3
:1015A000206AB0F5803F05D16868A16820F400305A
:1015B00008436860D4E908010843696821F474119C
:1015C00008436860C6F86090FFF776FC044606E0C2
:1015D00025E000BFFFF770FC001B022809D828682F
:1015E0008001F7D51BE000BFFFF766FC001B022857
:1015F00002D90320BDE8F88F28688001F4D40EE0FA
:101600000128F7D06868226A00F48031914204D141
:10161000616A00F47010884201D00120EAE70020DE
:10162000E8E700000010024000004242800442420D
:101630001C0000200070004070B5040009D0606AF2
:10164000002540B125616561A56294F8510040B163
:101650000CE0012070BD6068B0F5827FF4D0E561D8
:10166000F2E784F85050204600F040F8022084F859
:1016700051002068016821F040010160A0882189A3
:1016800000F4827001F404410843A18901F400616F
:101690000843217C01F002010843217D01F0010192
:1016A0000843218B01F400710843217F01F03801C8
:1016B000084394F8201001F080010843218D01F4C3
:1016C0000051084321680860A069042101EA104024
:1016D000216848602068C16921F40061C1616565C5
:1016E000012084F85100002070BD000030B585B0A5
:1016F00000210091019102910391006814498842F0
:1017000023D11448816941F480518161816901F4D8
:1017100080510491816941F0040181618069022452
:1017200000F0040004901020CDE900040A4D694641
:1017300028460394FFF7C2FAA020CDE90004032055
:10174000039069462846FFF7B9FA05B030BD00009E
:101750000030014000100240000801402DE9F84F20
:10176000044690F850000026984615468A460128FF
:101770000CD0012784F85070FFF79EFB814694F847
:101780005100B346012804D002269AE00220BDE8A9
:10179000F88FBAF1000F6FD0002D6DD0032084F8C0
:1017A0005100C4F854B0C4F830A0A586E586C4F84A
:1017B00038B0A4F83CB0A4F83EB0C4F844B0C4F8C3
:1017C00040B0A068B0F5004F09D12068016821F051
:1017D000400101602068016841F480410160206897
:1017E0000168490603D4016841F040010160E068E6
:1017F000B0F5006F606803D058B3012D29D049E0DF
:1018000008B1012D1FD1206B21680088C86006E057
:1018100020688168890709D5216B0988C160206B20
:10182000801C2063E08E401EE0860CE0FFF744FB46
:10183000A0EB0901414503D3B8F1FF3F03D006E017
:10184000B8F1000F03D0E08E0028E1D125E0032697
:1018500035E0206B21680078087306E02068816815
:1018600089070AD5216B09780173206B401C20631E
:10187000E08E401EE0860DE01FE0FFF71DFBA0EBB1
:101880000901414503D3B8F1FF3F03D0DFE7B8F1C9
:10189000000FDCD0E08E0028E0D14A4641462046C9
:1018A00000F02EFE08B120206065A06818B92068FD
:1018B000C16880680090606D08B1012601E084F87D
:1018C000517084F850B0304661E77047704710B5EA
:1018D000040003D094F83D0010B107E0012010BDD2
:1018E000002084F83C00204600F01EF8022084F816
:1018F0003D00211D206800F0D5FE012084F846003F
:1019000084F83E0084F83F0084F8400084F84100E9
:1019100084F8420084F8430084F8440084F84500C9
:1019200084F83D00002010BD7047000090F83D1085
:10193000012901D001207047022180F83D10016883
:10194000CA6842F00102CA6000680B49884208D0A8
:10195000B0F1804F05D00949884202D00849884239
:1019600004D1816801F00701062903D0016841F024
:101970000101016000207047002C0140000400407C
:1019800000080040704770B50446006801694FF0D8
:101990000005C943890715D4C168C943890711D413
:1019A000E91E0161012020772068806980072046B8
:1019B00002D0FFF7E7FF04E000F098F8204600F0BF
:1019C00096F8257720680169C943490717D4C1688B
:1019D000C943490713D46FF0040101610220207745
:1019E0002068806910F4407F204602D0FFF7CAFFCC
:1019F00004E000F07BF8204600F079F825772068B5
:101A00000169C943090716D4C168C943090712D43B
:101A10006FF008010161042020772068C069800709
:101A2000204602D0FFF7AEFF04E000F05FF820464A
:101A300000F05DF8257720680169C943C90617D40D
:101A4000C168C943C90613D46FF0100101610820B1
:101A500020772068C06910F4407F204602D0FFF74D
:101A600091FF04E000F042F8204600F040F82577AE
:101A700020680169C943C90708D1C168C943C907BA
:101A800004D1891E0161204600F032F82068016906
:101A9000C943090609D4C168C943090605D46FF0D2
:101AA000800101612046FFF710FF20680169C943EA
:101AB000490609D4C168C943490605D46FF04001FD
:101AC0000161204600F01EF820680169C9438906BB
:101AD0000BD4C168C943890607D46FF020010161A6
:101AE0002046BDE87040FFF7F1BE70BD70477047FB
:101AF00000680349884201D1FFF7E4B9704700004C
:101B0000000800407047704770470000F8B5016852
:101B100004460868CA684B6910F00F0F4FF00005C3
:101B200059D003F0010602F49077374365D0C1071E
:101B300005D0D10503D5616C41F001016164410715
:101B400005D5D90703D0616C41F0020161648107BA
:101B500005D5D90703D0616C41F004016164010728
:101B600007D502F02001314303D0616C41F0080138
:101B70006164616C00293AD0800604D5900602D5D4
:101B8000204600F0F4FD20684069616CC0F38010CD
:101B9000090700D460B3204600F0C2FD2068406908
:101BA000400621D52068143050E8001F21F0400184
:101BB00040E80012002AF5D1E06BA8B16D494163FD
:101BC000E06BFEF745FF002811D0E06B416B01B0E0
:101BD000BDE8F040084783060FD593060DD5204693
:101BE000BDE8F84000F0C3BD2046FFF78DFFF8BD0B
:101BF0002046FFF789FF6564F8BD266B2023012E80
:101C00007CD1C6067AD5D60678D508684868009093
:101C100048694FF00206400640D5E16B086840680D
:101C20000004000CE8D0A28D8242E5D9E0858869E5
:101C300020282DD020680C3050E8001F21F480713E
:101C400040E80012002AF5D12068143050E8001F47
:101C500021F0010140E80012002AF5D1206814307B
:101C600050E8001F21F0400140E80012002AF5D1A1
:101C700084F84230256320680C3050E8001F21F0C2
:101C8000100140E80012002AF5D1E06BFEF7BCFE1F
:101C90006663A08DE18D401A81B22AE0A08DE18DAE
:101CA000401A81B2E08D0028A6D00029A4D0226875
:101CB0000C3252E8000F20F4907042E80007002F29
:101CC000F5D12068143050E8002F22F0010240E8DE
:101CD0000027002FF5D184F84230256320680C30AE
:101CE00050E8002F22F0100240E80023002BF5D12D
:101CF00066632046FFF707FFF8BDFFE705062BD513
:101D0000150629D594F841002128F5D1A068B0F531
:101D1000805F01D12069B0B1206A411C2162216835
:101D200000784860E08C401E0004000CE084E3D1A1
:101D30002068C16821F08001C1602068C16841F05D
:101D40004001C160D8E7206A0088C0F308004860FD
:101D5000206A801C2062E5E74006CDD55006CBD531
:101D6000CA68204622F04002CA6084F8413000F080
:101D7000A4F8C1E71127000870B5040004D094F856
:101D80004100002510B106E0012070BD84F84050EC
:101D9000204600F023F8242084F841002068C16820
:101DA00021F40051C160204600F042FD2068016925
:101DB00021F4904101612068416921F02A014161CB
:101DC0002068C16841F40051C1606564202084F836
:101DD000410084F842006563002070BDF0B585B015
:101DE00000240646009401940294039400682D494F
:101DF000884254D12C48816941F4804181618169D4
:101E000001F480410491816941F00401816180699C
:101E1000264D00F0040004904FF400700090022062
:101E200001900320039069462846FEF747FF2815D6
:101E3000CDE90004694628460294FEF73FFF1D4D98
:101E40001B488027C5E90004C5E902472C616C6185
:101E5000AC612846EC61FEF7F1FE08B1FEF77EFBAF
:101E6000F5636E62134D12484435143801C51020D5
:101E700091C5104845F8104944306C61AC61EC6183
:101E8000FEF7DCFE08B1FEF769FBB5630022052111
:101E900025206E62FFF79CF82520FFF78BF805B030
:101EA000F0BD000000380140001002400008014071
:101EB000580002406801002070477047FEE70000AC
:101EC00010B50446012204210548FEF7EFFF200A61
:101ED00000F082FBE0B2BDE8104000F07DBB0000E6
:101EE0000008014000F01DF800F098FA012000F011
:101EF0003DFDFBE770B5064600219F237F22084683
:101F000000F036F92C2000F071F90024002530464D
:101F1000FFF7D6FF6D1CA02DF9D3641C802CF5D3E0
:101F200070BD10B500F00EF9112000F05FF97820B7
:101F3000FEF7B2FEB12000F059F9012000F048F997
:101F40002C2000F045F92D2000F042F9B22000F0DD
:101F50004DF9012000F03CF92C2000F039F92D203A
:101F600000F036F9B32000F041F9012000F030F91B
:101F70002C2000F02DF92D2000F02AF9012000F08E
:101F800027F92C2000F024F92D2000F021F9B420AD
:101F900000F02CF9072000F01BF9C02000F026F912
:101FA000A22000F015F9022000F012F9842000F0C0
:101FB0000FF9C12000F01AF9C52000F009F9C2207C
:101FC00000F014F90A2000F003F9002000F000F9F5
:101FD000C32000F00BF98A2000F0FAF82A2000F064
:101FE000F7F8C42000F002F98A2000F0F1F8EE20A2
:101FF00000F0EEF8C52000F0F9F80E2000F0E8F847
:10200000362000F0F3F8C02000F0E2F8E02000F005
:10201000EDF80F2000F0DCF81A2000F0D9F80F20BE
:1020200000F0D6F8182000F0D3F82F2000F0D0F8F8
:10203000282000F0CDF8202000F0CAF8222000F07F
:10204000C7F81F2000F0C4F81B2000F0C1F82320BF
:1020500000F0BEF8372000F0BBF8002000F0B8F820
:10206000072000F0B5F8022000F0B2F8102000F0D0
:10207000AFF8E12000F0BAF80F2000F0A9F81B201B
:1020800000F0A6F80F2000F0A3F8172000F0A0F849
:10209000332000F09DF82C2000F09AF8292000F061
:1020A00097F82E2000F094F8302000F091F83020BE
:1020B00000F08EF8392000F08BF83F2000F088F80F
:1020C000002000F085F8072000F082F8032000F0DF
:1020D0007FF8102000F07CF82A2000F087F800201C
:1020E00000F076F8002000F073F8002000F070F89F
:1020F0007F2000F06DF82B2000F078F8002000F031
:1021000067F8002000F064F8002000F061F89F20DC
:1021100000F05EF8F02000F069F8012000F058F8B7
:10212000F62000F063F8002000F052F83A2000F0AA
:102130005DF8052000F04CF8BDE81040292000F0C3
:1021400055B8000010B5094C002202212046FEF7C8
:10215000ADFE6420FEF7A0FD012202212046FEF71D
:10216000A5FEBDE810403220FEF796BD00080140F4
:102170002DE9F04107461C4615460E462A2000F080
:1021800035F8002000F024F8F8B200F021F8002023
:1021900000F01EF8AD1CE8B200F01AF82B2000F099
:1021A00025F8002000F014F8F0B200F011F800203B
:1021B00000F00EF8641CE0B200F00AF8BDE8F0414F
:1021C0002C2000F013B80B460246FFF7D1BF0000E9
:1021D00010B50446012204210348FEF767FE20469D
:1021E000BDE8104000F0F8B90008014010B5044601
:1021F000002204210348FEF759FE2046BDE81040A6
:1022000000F0EAB9000801403EB5002410480094EF
:10221000019402940D4984600160047304750125E2
:1022200005614FF460214460C161FEF733FB08B1E2
:10223000FEF794F9CDE90045694605480294FEF79A
:10224000ABFA002801D0FEF789F93EBD0024014019
:10225000980000200D4808B5416941F00101416135
:102260004069002200F00100009005210E20FEF7D9
:10227000AFFE0E20FEF79EFE002205210F20FEF786
:10228000A7FEBDE808400F20FEF794BE00100240F4
:1022900010B50E4A00210E4800F0BEFB0D4C0B4A53
:1022A0000021206024320C4800F0B6FB074A606031
:1022B00048320021094800F0AFFB044AA0606C32AC
:1022C0000021074800F0A8FBE06010BDA440000812
:1022D000E51E000800000020292900081F29000829
:1022E000172900082DE9F04186B000242748009402
:1022F000019402940394816941F010018161816924
:1023000001F010010491816941F02001816181692E
:1023100001F020010491816941F00401816181692A
:1023200001F004010491816941F008018161806933
:10233000174F00F008000490012248F20A013846C5
:10234000FEF7B4FD002204213846FEF7AFFDDFF8AA
:102350004480012211464046FEF7A8FD48F20E00D7
:1023600001250226CDE90005CDE902466946384639
:10237000FEF7A4FC03960095CDE90154694640465A
:10238000FEF79CFC06B0BDE8F081000000100240A2
:1023900000080140000C0140104810B50E490160D2
:1023A0004FF48271416000218160C1604FF480224E
:1023B0000161C0E905122022C0E907214162816262
:1023C0000A21C162FFF738F9002803D0BDE81040A8
:1023D000FEF7C4B810BD000000300140C800002066
:1023E0000C4810B50A4901604FF4E1314160002109
:1023F00081600C22C160C0E904128161C161FFF7F4
:10240000BBFC002803D0BDE81040FEF7A7B810BD04
:102410000038014020010020FEE7FEE738B54EF607
:102420007D742046FFF766FD21A0009023461F2201
:1024300000211020FEF794F821A04FF47845009079
:1024400023462A4614211020FEF78AF83A237122E7
:1024500026210F20FEF743F81DA0009023464FF6DB
:10246000E07228211020FEF77BF8582371224421C6
:102470000F20FEF734F81AA0009023461F224621B1
:102480001020FEF76DF87623712262210F20FEF7EF
:1024900026F817A0009023462A4664211020FEF754
:1024A0005FF8BDE8384040F2DC50FEF7F5BB0000B5
:1024B000C8ABB6AFB5E7D7D3BCBCCAF500000000C7
:1024C000D2BABEA7B2E2CAD4B3CCD0F200000000A8
:1024D000D1D5C9ABCCEEB3E4B2E2CAD4000000005F
:1024E000CEC4D7D6CFD4CABEB2E2CAD40000000050
:1024F000CDBCC6ACCFD4CABEB2E2CAD40000000084
:1025000038B50B46009204460022802100F008F8FE
:10251000002804D0606D40F020006065032038BDC5
:102520002DE9F8431E46914688460446089DFEF76D
:10253000C3FC401B351AFEF7BFFC07462548006860
:10254000C0F3CB30684338E0701C37D0FEF7B4FCE2
:10255000C01BA84203D215B1009860B32CE02068DC
:10256000416821F0E00141606068B0F5827F0BD1E5
:10257000A068B0F5004F02D0B0F5806F04D120689C
:10258000016821F040010160A06AB0F5005F09D147
:102590002068016821F4005101602068016841F45D
:1025A00000510160012084F85100002084F850009F
:1025B0000320BDE8F8830025401E00902068816854
:1025C00038EA010004D000214945BDD10020F0E7E0
:1025D0000121F9E71C00002001B54FF47A730122B4
:1025E00069460248FFF7BAF808BD0000C80000209D
:1025F00010B5502080F31188BFF34F8FBFF36F8F5A
:1026000001F0AEFB18B104494FF080500860002083
:1026100080F3118810BD000004ED00E030B593B0E8
:1026200028216846FDF769FE14210AA8FDF765FE1A
:10263000002501200F9510951195010412958DE844
:10264000230004904FF4E010CDE908100224079411
:102650006846FEF761FE08B172B6FEE70AA90F20D0
:1026600081E831004FF48060CDE90D0502210AA810
:10267000FEF756FD08B172B6FEE74FF40040119028
:102680000F940FA8FEF7D6FC002801D072B6FEE723
:1026900013B030BD704700000148FFF774B9000067
:1026A000F0010020F0B50268164B174C174D4FF0A3
:1026B0008047984205D0B84203D0A04201D0A8423A
:1026C00003D122F070064A683243984205D0B842DE
:1026D00003D0A04201D0A84203D122F44074CA68BA
:1026E00022434C6922F08002224302608A68C2625F
:1026F0000A688262984201D109690163012141613E
:10270000F0BD0000002C0140000400400008004023
:1027100010B5406A0021C185C184FFF7F5F910BDED
:1027200001680C3151E8002F22F4907241E8002337
:10273000002BF5D10168143151E8002F22F001027D
:1027400041E80023002BF5D1016B012909D1016873
:102750000C3151E8002F22F0100241E80023002B39
:10276000F5D1202180F8421000210163704708B59F
:1027700090F84210222901D0022008BD82684FF44F
:1027800080539A4201D1016921B1816A9A421BD0DA
:102790004AB10AE00268816A5268C2F308020A80FC
:1027A000816A891C08E0026972B10268526802F00D
:1027B0007F020A70816A491C8162C18D491E090429
:1027C000090CC18503D01BE002685268F1E701687B
:1027D000CA6822F02002CA600168CA6822F48072C6
:1027E000CA6001684A6922F001024A61202180F82A
:1027F000421000214163026B012A03D0FFF75CFB0A
:10280000002008BD016301680C3151E8002F22F05F
:10281000100241E80023002BF5D101680A68D206B6
:1028200002D50A6849680091818DFFF76CF9E7E7E6
:1028300070B5044600680169E26821F44051114313
:1028400001612169A0680843616908432168CA6879
:1028500041F20C639A430243CA6020684169A2694D
:1028600021F44071114341611E492068884202D120
:10287000FEF71CFD01E0FEF709FD00EBC00101EBD6
:102880000012606864218000B2FBF0F3B3FBF1F347
:102890006FF018067343B2FBF0F5B2FBF0F605EBF0
:1028A0008305322303EB0515B5FBF1F5B6FBF1F615
:1028B00005F0F00505EB0615B2FBF0F6B2FBF0F003
:1028C000B0FBF1F06FF01802504306EB800003EB11
:1028D0000010B0FBF1F0216800F00F002844886080
:1028E00070BD0000003801400148FFF70FB900003B
:1028F00020010020FEE70907090E002804DB00F193
:10290000E02080F80014704700F00F0000F1E02094
:1029100080F8141D7047012000F028F8FBE7012023
:1029200000F024F8FBE70000044C01212046FEF7EC
:10293000B5FA642000F01AF8F7E70000000C014037
:10294000FEF7C8FAFFF76AFEFFF7CCFCFFF75CFC66
:10295000FFF780FCFFF720FDFFF742FD00F020F8B5
:10296000FFF796FC00F038F8FEE7000010B5EFF333
:10297000058149B9EFF3108131B908490968022985
:1029800005D1EFF3118111B16FF0050403E00024CC
:1029900008B100F0E3FD204610BD000070000020EB
:1029A000EFF3058058B9EFF3108040B90949086882
:1029B000022801D030B109E0EFF3118030B16FF09F
:1029C0000500704701200860002070474FF0FF307D
:1029D000704700007000002010B5EFF3058060B96B
:1029E000EFF3108048B90B490868022802D001288B
:1029F00006D00BE0EFF3118040B16FF0050010BD81
:102A00000220086000F012FE002010BD4FF0FF30E1
:102A100010BD000070000020F0B585B04FEA010342
:102A20004FF00004EFF305810394A1BBEFF3108195
:102A300089BB21490968022902D1EFF3118151BBF9
:102A400048B3802618218DF8104004AD42B31768B2
:102A500007B13D4697691FB139467F1E382F02D214
:102A60001779FF0702D0002005B0F0BD576907B104
:102A7000BE08D2F808C0BCF1000F0DD0D4685C2CA1
:102A800018D312693AB137B18DE80610324629469B
:102A900001F027F903900DE0D7685FB912694AB9D0
:102AA00003AACDE90012B2B2294601F0EDF80128DF
:102AB00000D003940398D7E7700000202DE9F0417F
:102AC000134C0F46054666692068001D00F016FC91
:102AD000681C07D137B12168BDE8F0410D48091DD8
:102AE00000F05CBC20683544B5424560216805D2E1
:102AF000A068BDE8F041091D00F038BC6068091D00
:102B000000F034FC206B854200D22563BDE8F081E3
:102B100020000020280700202DE9F041054600F0A4
:102B200049FC2D4C2069401C206120682B4F10B1BE
:102B3000E06930B32BE025602069012827D1002609
:102B400006EB860007EB800000F002FC761C382EB6
:102B5000F6D3234800F0FCFB2148143000F0F8FBCA
:102B60001F48283000F0F4FB1D483C3000F0F0FB1B
:102B70001B48503000F0ECFB194860601430A06036
:102B800005E02068E96AC06A884200D82560E06AEA
:102B9000401CE0626864E86AA169884200D9A061CB
:102BA00000EB800007EB8000291D00F0F7FB00F030
:102BB00021FCE06900280CD02068E96AC06A8842DC
:102BC00007D208494FF080500860BFF34F8FBFF322
:102BD0006F8FBDE8F0810000200000207802002007
:102BE000D806002004ED00E038B500F0E3FB104CFF
:102BF000A068C8B90F4800F0ABFB0E48143000F0D5
:102C0000A7FB0C482060143060600A4B002028337A
:102C1000009003F1500210210A2000F0D9FDA060BD
:102C200010B105A100F064FCBDE8384000F0E2BB43
:102C30005C0000203C070020546D72510000000031
:102C400030B4026C0B46002A0BD0C1681144C1603D
:102C50004468A14201D30168C16030BC1846FDF749
:102C6000FFBA30BC70472DE9F041856B174604462A
:102C70000026026C82B1C7B1E068FDF7F1FAE168A5
:102C8000206C091AE1602268914202D26168081A38
:102C9000E060022F16D017E02068A8B9606801F044
:102CA000C3F80646002060600EE0A068FDF7D8FA81
:102CB000216CA0680844A0606168884204D3206841
:102CC000A06001E005B16D1E6D1CA5633046BDE836
:102CD000F08110B5044690F8590058B101280CD085
:102CE00002280FD0502080F31188BFF34F8FBFF31D
:102CF0006F8FFEE7206B00F091FB2046BDE810408F
:102D000000F08CBB10BD000010484FF4406142073A
:102D100006D0C01D0D4920F00700411AC1F54061E1
:102D20000B4A00230144C2E900030839103A21F09C
:102D3000070111604B600B600B1AC0E90013936030
:102D40004FF000405360D060704700000C0F00202F
:102D500084000020144E154CA6F29C474FF080587A
:102D6000DFF84C9012E000BF00F024FBF068C5686B
:102D7000281D00F0C3FA2069401E2061E068401E53
:102D8000E06000F037FB2846FFF7A3FFE06800286B
:102D9000EAD138680128F9D9C9F80080BFF34F8F0C
:102DA000BFF36F8FF2E7000014070020200000201F
:102DB00004ED00E070B51D46049C51B1C4F800203C
:102DC000C4E90F010121204600F036FD84F84C5083
:102DD00070BD2460F4E72DE9F0470E46DDE9098473
:102DE0001746824691009946089DA522206BFDF763
:102DF0007CFA6FF00301206B01EB8701084420F09F
:102E00000707780707D0502080F31188BFF34F8F52
:102E1000BFF36F8FFEE72218315C82F83410315C0B
:102E200011B1401C1028F6D3002684F84360382DD9
:102E300000D33725E562C4E91356201D00F093FA4C
:102E400004F1180000F08FFA2461C5F138006462C3
:102E5000A061666584F858604A465146384600F0DD
:102E60003BFA2060B8F1000F01D0C8F80040BDE87F
:102E7000F087000030B5114900E011460A6882422F
:102E8000FBD34B685C18844203D140681844486007
:102E9000084643681C18944209D1084C103C246829
:102EA000A24209D052681A4442600A68126802605D
:102EB000814200D0086030BD0460F9E78400002042
:102EC00070B5002441600B4D0061914206D8D11AC3
:102ED0008269914206D2011D686807E09A4203D2D6
:102EE000994201D3012403E0011D286800F03EFA55
:102EF000204670BD5C00002010B5044600F05AFA70
:102F0000A06B28B15FF0000400F074FA204610BDF9
:102F10000124F9E730B589B0304D55E00498002818
:102F200006DADDE90601059A9047049800284BDB94
:102F3000069C606910B1201D00F0E0F902A800F0C5
:102F4000B9F8024604980A283ED2DFE800F00505E9
:102F5000053D263705053D260598A1690346014430
:102F60002046FFF7ADFF00B3616A20468847E0695D
:102F7000012829D1002000900598A169002342185A
:102F80001946204601F05AF878B9502080F311888C
:102F9000BFF34F8FBFF36F8FFEE70598A06128B195
:102FA000811813462046FFF78BFF0DE0502080F379
:102FB0001188BFF34F8FBFF36F8FFEE794F82C009B
:102FC00010B9204600F02AFA002204A9A86800F0EF
:102FD00085FD0028A2D109B030BD00005C000020B2
:102FE0002DE9FC410F46054600F064FB01A800F006
:102FF00061F80446019818B100F08EFFBDE8FC812D
:10300000224EAFB170680068A8B30027291B3A466A
:10301000B06800F081FA00F07FFF0028EED11C4973
:103020004FF080500860BFF34F8FBFF36F8FE5E71D
:10303000A542EBD800F070FF30682746C068C4682E
:10304000201D00F05BF9E069012810D1A0692B4632
:1030500041193A462046FFF733FF40B100200346AE
:10306000014600902A46204600F0E8FF20B1616A40
:1030700020468847C2E707E0502080F31188BFF35D
:103080004F8FBFF36F8FFEE70127BFE75C00002083
:1030900004ED00E006484168096829B14168C96843
:1030A000C9684968016370474FF0FF31FAE70000D3
:1030B0002000002070B5054600F04CFE064E044688
:1030C0003069844203D200F009F8012000E00020BA
:1030D00028602046346170BD5C000020F8B5194DB1
:1030E0001FE0C068C4680668201D00F007F9616A27
:1030F00020468847E069012813D1A0693044B042D6
:1031000006D924616060211D286800F02FF908E0CD
:1031100000200346014600903246204600F08EFF14
:1031200038B1286801680029DBD16968C5E9001059
:10313000F8BD502080F31188BFF34F8FBFF36F8F1E
:10314000FEE700005C00002008484068401C4FF08B
:10315000500080F3118804D0BFF34F8FBFF36F8FFF
:10316000FEE7BFF34F8FBFF36F8FFEE78C000020A9
:10317000074C2068016841B1C0680021D0F8000008
:10318000FFF72EFFFFF7C6FEF3E701210020F7E768
:103190005C0000202DE9F041044600F00BF994F9A1
:1031A000455004F1240609E0606A48B1304600F059
:1031B0007BFE08B100F000FA6D1E6DB2002DF3DC4D
:1031C0004FF0FF3684F8456000F014F900F0F2F893
:1031D00094F9445004F1100709E0206948B13846D9
:1031E00000F062FE08B100F0E7F96D1E6DB2002D2F
:1031F000F3DC84F84460BDE8F04100F0FBB8000067
:103200002DE9F0410546002700F054FA314E3068B0
:1032100008B9FFF779FDF06805424BD1C5B3083511
:1032200068070ED005F00700C0F1080005446807E4
:1032300007D0502080F31188BFF34F8FBFF36F8FFB
:10324000FEE72DB37068854234D82248103001461D
:103250000C6801E020460C466168A94202D2216850
:103260000029F7D131688C4224D0076821680160B9
:1032700060680837411B10290FD96019420708D030
:10328000502080F31188BFF34F8FBFF36F8FFEE79D
:1032900010E041606560FFF7EDFD61687068401AFD
:1032A0007060B268904200D2B060F06801430020C4
:1032B000C4E9000100F030FE780707D0502080F309
:1032C0001188BFF34F8FBFF36F8FFEE73846BDE81D
:1032D000F08100007400002010B5031F4FF08074CF
:1032E0001C601B1F21F001011960191F024B0B60AC
:1032F000143940380A6010BD49310008D0E9013264
:1033000001699A60D0E901235A604A68824201D17A
:1033100082684A60002202610868401E08600868EE
:1033200070470000034B036003F15C0008608020DD
:103330001060704754080020044B036003F15C00E8
:1033400008604FF48070106070470000B00A0020E1
:1033500000F108014FF0FF32C0E90112C1600161C4
:1033600000210160704700210161704730B50B6892
:103370005A1C02D000F1080202E0026904E0224671
:10338000546825689D42FAD953684B6099608A60F9
:10339000516008610168491C016030BD42684A60A3
:1033A00093688B6093685960916008610168491C5B
:1033B00001607047502080F31188BFF34F8FBFF337
:1033C0006F8F0A494868401C486001280CD10848A2
:1033D000006810F0FF0F07D0502080F31188BFF372
:1033E0004F8FBFF36F8FFEE7704700008C00002007
:1033F00004ED00E00849486828B1401E486001D14A
:1034000080F311887047502080F31188BFF34F8FED
:10341000BFF36F8FFEE700008C00002070B500281E
:1034200027D0144DA0F108046168E868014207D173
:10343000502080F31188BFF34F8FBFF36F8FFEE7EB
:1034400022683AB1502080F31188BFF34F8FBFF349
:103450006F8FFEE78143616000F02CF96068696856
:10346000084468602046FFF705FDBDE8704000F0A5
:1034700053BD70BD740000204FF0E02000210161B9
:10348000816105494FF47A720968B1FBF2F1491E76
:1034900041610721016170471C00002010B5FCF755
:1034A000BBFE114910280ED300F1E02090F8F00384
:1034B0000A78904207D2502080F31188BFF34F8FD3
:1034C000BFF36F8FFEE709480068896800F4E06089
:1034D000884207D9502080F31188BFF34F8FBFF384
:1034E0006F8FFEE710BD00008C0000200CED00E0A7
:1034F00010B5084B002200BF53F832401CB1521CDB
:10350000082AF9D310BD43F8321003EBC20148601A
:1035100010BD00003802002070B515460E46044666
:10352000FFF748FF94F944100020491C01D184F8AA
:10353000440094F94510491C01D184F84500FFF777
:1035400059FFA06B28B92A46314604F1240000F047
:1035500051F82046BDE87040FFF71CBE10B50200D0
:1035600014D00F48806B38B1502080F31188BFF31E
:103570004F8FBFF36F8FFEE700F09CF800211046DD
:10358000FFF79CFA00F0C8FC002807D105494FF06E
:1035900080500860BFF34F8FBFF36F8F10BD0000E6
:1035A0002000002004ED00E002498A6A02604969B7
:1035B00041607047200000200149012048627047A7
:1035C0002000002010B50C4650B109490968183197
:1035D000FFF7CCFE2046BDE810400121FFF76EBA90
:1035E000502080F31188BFF34F8FBFF36F8FFEE73A
:1035F0002000002070B514460D4668B10A490968DC
:103600001831FFF7CBFE0CB14FF0FF3521462846AD
:10361000BDE87040FFF752BA502080F31188BFF325
:103620004F8FBFF36F8FFEE72000002030B587B0CB
:103630000024039405AA04A903A80494FFF772FECA
:10364000DDE903010094CDE90110002315A117481D
:10365000059A00F046FB164D002868631FD000F065
:10366000BDFC012809D0401C19D1502080F31188DD
:10367000BFF34F8FBFF36F8FFEE7502080F31188A9
:10368000BFF34F8FBFF36F8F4FF0FF3028630120E0
:10369000E8616C6107B0BDE8304000F045B807B0A4
:1036A00030BD000049444C4500000000552D000885
:1036B000200000200248816B491C81637047000094
:1036C00020000020164810B5816B11B10121416224
:1036D00010BD002141628169124A01E0B9B1491E61
:1036E00001EB810352F82330002BF7D001EB81036B
:1036F00002EB830202F1080453685B685360A34243
:1037000001D15B685360DA680260816110BD5020AE
:1037100080F31188BFF34F8FBFF36F8FFEE7000078
:1037200020000020780200201CB52649087801906E
:10373000FF20087008788DF800009DF800009DF8C3
:10374000002000F0F000904207D0502080F3118854
:10375000BFF34F8FBFF36F8FFEE79DF800001A4B4A
:1037600000F0500018700720986005E09DF80020D8
:1037700052008DF80020401E9DF800201206F5D45E
:103780009860032807D0502080F31188BFF34F8F33
:10379000BFF36F8FFEE74FF4407098600198087098
:1037A0000A48016841F470010160016841F070410C
:1037B0000160FFF761FE00205860FCF7F7FC002075
:1037C0001CBD000000E400E08C00002020ED00E0C3
:1037D00038B5049D18B153B1CAB181B120E0502071
:1037E00080F31188BFF34F8FBFF36F8FFEE7502038
:1037F00080F31188BFF34F8FBFF36F8FFEE7502028
:1038000080F31188BFF34F8FBFF36F8FFEE739B19D
:10381000502080F31188BFF34F8FBFF36F8FFEE707
:1038200050241C46012384F846302B460094FFF7B1
:10383000C1FA204638BD000070B50D46040025D001
:10384000FFF7B8FDD4E90F20216802FB0011616089
:103850000021A1632168A1600A46D4E90F01401E3E
:1038600000FB0121E16021464FF0FF3001F8440FD9
:10387000487004F110008DB1FFF76AFD04F12400D7
:10388000FFF766FDFFF7B6FD012070BD502080F305
:103890001188BFF34F8FBFF36F8FFEE721690029B7
:1038A000F0D000F001FB0028ECD004494FF080502C
:1038B0000860BFF34F8FBFF36F8FE3E704ED00E0C5
:1038C0002DE9FF4782B01D468A464FF000080400EC
:1038D00003D0BAF1000F08D011E0502080F3118816
:1038E000BFF34F8FBFF36F8FFEE7206C38B15020CE
:1038F00080F31188BFF34F8FBFF36F8FFEE7022D68
:103900000AD1E06B012807D0502080F31188BFF363
:103910004F8FBFF36F8FFEE700F00EFA3F4F4FF06F
:1039200000094FF0805648B9049838B1502080F310
:103930001188BFF34F8FBFF36F8FFEE7FFF73AFD9C
:10394000A06BE16B884207D3022D05D00498D0B15B
:10395000B8F1000F1AD01EE02A4651462046FFF764
:1039600082F9616A19B104F1240000F09DFA20B1D6
:103970003E60BFF34F8FBFF36F8FFFF73BFD01201A
:1039800006B0BDE8F087FFF735FD22E06846FFF797
:103990000BFE4FF00108FFF72DFDFFF78BFEFFF741
:1039A00009FD94F94400401C01D184F8449094F935
:1039B0004500401C01D184F84590FFF71BFD04A988
:1039C000684600F027F930B12046FFF7E3FB00F02E
:1039D000A3FA0020D4E7FFF7EDFCA06BE16B88426F
:1039E00013D1FFF707FD04F110000499FFF7EAFD7A
:1039F0002046FFF7CFFB00F08FFA00289ED13E60F3
:103A0000BFF34F8FBFF36F8F98E7FFF7F3FC2046AC
:103A1000FFF7C0FB00F080FA90E7000004ED00E043
:103A20002DE9F0471F4690468946040003D0B9F1BE
:103A3000000F08D011E0502080F31188BFF34F8FA2
:103A4000BFF36F8FFEE7206C38B1502080F31188F0
:103A5000BFF34F8FBFF36F8FFEE7022F0AD1E06BEA
:103A6000012807D0502080F31188BFF34F8FBFF398
:103A70006F8FFEE7FFF712FD5020EFF3118680F302
:103A80001188BFF34F8FBFF36F8FA06BE16B88423C
:103A900006D3022F04D0002086F31188BDE8F087FA
:103AA00094F945503A4649462046FFF7DCF8681C31
:103AB00004D06D1C84F845500120EDE7606A0028B1
:103AC000FAD004F1240000F0EFF90028F4D0B8F1A6
:103AD000000FF1D00121C8F80010EDE72DE9F747FC
:103AE000002683B08A46040003D0BAF1000F08D044
:103AF00011E0502080F31188BFF34F8FBFF36F8F19
:103B0000FEE7206C38B1502080F31188BFF34F8F4F
:103B1000BFF36F8FFEE700F00FF9DFF8F4804FF08E
:103B200000094FF0805748B9059838B1502080F30C
:103B30001188BFF34F8FBFF36F8FFEE7FFF73AFC9B
:103B4000A56BC5B151462046FFF77AF86D1EA563F7
:103B5000206950B104F1100000F0A6F928B1C8F8AE
:103B60000070BFF34F8FBFF36F8FFFF743FC01204F
:103B700006B0BDE8F087059808B11EB106E0FFF772
:103B800039FC27E06846FFF70FFD0126FFF732FCFE
:103B9000FFF790FDFFF70EFC94F94400401C01D1A3
:103BA00084F8449094F94500401C01D184F8459074
:103BB000FFF720FC05A9684600F02CF800282046F5
:103BC0000AD0FFF7E7FA00F0A7F92046FFF794F9CB
:103BD0000028B3D00020CBE7FFF78EF990B104F1B5
:103BE00024000599FFF7EEFC2046FFF7D3FA00F01A
:103BF00093F90028A2D1C8F80070BFF34F8FBFF32C
:103C00006F8F9BE72046FFF7C5FA00F085F995E72F
:103C100004ED00E02DE9F0410C46050011D0C4B1DF
:103C2000FFF7C8FB174B5A696E682068911B471C49
:103C300017D02F689B6A9F4219D0964217D801244B
:103C400010E0502080F31188BFF34F8FBFF36F8FC8
:103C5000FEE7502080F31188BFF34F8FBFF36F8FC3
:103C6000FEE70024FFF7C6FB2046BDE8F08188424E
:103C700005D9401A20602846FFF796FCF1E700209E
:103C80002060DCE7200000202DE9FF5F8346DDE9AE
:103C90000E87994616468A469000FFF7B1FA05004E
:103CA0001CD05C20FFF7ACFA040014D00020256380
:103CB00084F85900CDE90240CDE900874B463246F1
:103CC00051465846FFF787F82046FEF725FF0120AA
:103CD00004B0BDE8F09F2846FFF7A0FB4FF0FF308F
:103CE000F6E7F0B585B0DDE90B640A9DA6B1DCB15D
:103CF0005C2700972663022684F85960002604AFEB
:103D0000CDE90246CDE90057FFF765F82046FEF7FA
:103D100003FF049805B0F0BD502080F31188BFF375
:103D20004F8FBFF36F8FFEE7502080F31188BFF3F2
:103D30004F8FBFF36F8FFEE70548C16919B1806BE4
:103D400018B1002070470120704702207047000022
:103D5000200000200148406970470000200000203A
:103D60002DE9F0412E4C0027A06B40B1206A401C89
:103D70002062606A00B101273846BDE8F0816669BB
:103D8000761C666113D16068006838B1502080F3FA
:103D90001188BFF34F8FBFF36F8FFEE76068A16894
:103DA0006160A060A06A401CA062FFF773F9206BFD
:103DB000DFF87080864209D36068006880B160686F
:103DC000C068C568686886420DD220632068C06AF2
:103DD00000EB800158F821000128CAD90127C8E763
:103DE0004FF0FF30F1E7281DFFF788FAA86A18B1F5
:103DF00005F11800FFF782FAE86AA169884200D944
:103E0000A06100EB800108EB8100291DFFF7C6FAD5
:103E1000E86A2168C96A8842CED30127CCE700004E
:103E2000200000207802002070B504004FF000014F
:103E300033D01B4D2868844207D0502080F311886E
:103E4000BFF34F8FBFF36F8FFEE7206D38B1401E79
:103E50002065E36CE26A9A421FD040B11DE0502019
:103E600080F31188BFF34F8FBFF36F8FFEE7201DE4
:103E7000FFF744FAE06CE062C0F13800A061E06A4C
:103E8000A969884200D9A861064900EB800001EBCE
:103E90008000211DFFF782FA0121084670BD000055
:103EA000200000207802002070B5C068C46854B1BA
:103EB00004F118000646FFF721FA144DA86B50B123
:103EC0003146134815E0502080F31188BFF34F8F1F
:103ED000BFF36F8FFEE7201DFFF710FAE06AA969B4
:103EE000884200D9A8610B4900EB800001EB8000FB
:103EF000211DFFF753FAE06A2968C96A884202D98E
:103F00000120686270BD002070BD0000200000200C
:103F100000070020780200202DE9F0472C4D0024F6
:103F20002746A86B38B1FFF745FAA86B401EA86377
:103F3000A86B40B146E0502080F31188BFF34F8F4B
:103F4000BFF36F8FFEE72969224E0120D1B3A6F59A
:103F5000916980463068E0B1F068C46804F11800E7
:103F6000FFF7CCF9201DFFF7C9F9E06AA96988427B
:103F700000D9A86100EB800109EB8100211DFFF74A
:103F80000DFAE06A2968C96A8842E3D3C5F824803B
:103F9000E0E70CB1FFF77EF82C6A4CB14FEA080657
:103FA000FFF7DEFE00B16E62641EF9D100202862C8
:103FB000686A38B10849012738070860BFF34F8F96
:103FC000BFF36F8FFFF716FA3846BDE8F0870000A1
:103FD000200000200007002004ED00E010B586B0AE
:103FE000FEF702FE114CA068B8B1002003900490C7
:103FF00005AA04A903A8FFF79FF9DDE90321022020
:104000008DE8070000230AA10B48059AFFF769FE17
:10401000E06010B106B0012010BD502080F311887F
:10402000BFF34F8FBFF36F8FFEE700005C000020EF
:10403000546D722053766300713100082DE9FF4101
:104040001E46134602000A9D4FF0000016D0144C85
:10405000A768002F0FD0CDE900130292062917DAC6
:10406000FFF76AFE02284FF000030FD000226946D6
:10407000A068FFF725FC04B0BDE8F081502080F374
:104080001188BFF34F8FBFF36F8FFEE72A46EEE72D
:104090000023324669463846FFF7C2FCEBE70000D2
:1040A0005C000020385B00080000000000000000F9
:1040B00000000000000000000002000018000000E6
:1040C0000000000000000000545B00080000000039
:1040D00000000000000000000000000000020000DE
:1040E0000800000000000000000000004C5B000819
:1040F00000000000000000000000000000000000C0
:1041000000020000080000000000000000000000A5
:10411000405B0008000000000000000000000000FC
:104120000000000000020000080000000000000085
:1041300000000000010202030405060708090A0B3B
:104140000C0D0E0F10100000000000000000010216
:104150000304060708090000000001020304000030
:10416000000000000000000000000000000000103F
:10417000101010101010101000001010000000009F
:104180006C6C2424000000000100000000000024EA
:10419000242424FE48484848FC9090909000001049
:1041A0003C5492905038141212925478100000002F
:1041B000225C94A8481010242A5254880000000061
:1041C00030484850206E54948C888A740000000057
:1041D000303010100000000000000000000000045B
:1041E000081010202020202020101008040000803B
:1041F00040202010101010101020204080000000DF
:104200000000105438103854100000000000000066
:104210000010101010FE1010101000000000000020
:10422000000000000000000000001010200000004E
:104230000000000000FE0000000000000000000080
:10424000000000000000000000001010000000004E
:104250000404080810102020404080800000000066
:104260003844828282828282828244380000000046
:1042700010701010101010101010107C00000000B2
:104280003844828204081020408284FC0000000030
:1042900038448202043804020282443800000000DC
:1042A000040C141424244444FE04040E00000000F2
:1042B000FC808080B8C48202028284780000000002
:1042C0003C428280B8C4828282824438000000006E
:1042D0007E4282040408080810101010000000003C
:1042E000384482824438448282824438000000008C
:1042F000384482828282463A0282443800000000BA
:10430000000010100000000010100000000000006D
:10431000000010100000000000101020000000003D
:104320000000061860806018060000000000000011
:1043300000000000FE0000FE000000000000000081
:104340000000C0300C020C30C0000000000000383B
:1043500044828202040810101000101000000000B7
:104360003844829AAAAAAAAAAA9680423C000000CF
:1043700010101028282844447C4444EE000000001B
:10438000FC424242427C4242424242FC0000000067
:104390003C4482808080808082824438000000001B
:1043A000F844424242424242424244F80000000085
:1043B000FC444240447C4440404244FC0000000035
:1043C000FC444240447C4440404040F00000000037
:1043D000344C828080808E8484844C3400000000C1
:1043E000EE444444447C4444444444EE0000000011
:1043F0007C101010101010101010107C0000000025
:104400003E080808080808080888887000000000AE
:10441000EE44484850605048484444EE00000000D4
:10442000E040404040404040404244FC000000002A
:10443000C6446C6C6C545454444444EE0000000078
:10444000CE4464646454544C4C4C44E4000000007A
:104450003844828282828282828244380000000054
:10446000F844424242447840404040E000000000AE
:10447000384482828282828282BA443C02000000F6
:10448000F048444444487048444444E60000000076
:104490003C44828040300C020282447800000000DC
:1044A0007C549210101010101010103800000000F2
:1044B000EE4444444444444444444438000000002E
:1044C000EE4444444428282828101010000000001E
:1044D000EE44545454545454282828280000000012
:1044E000EE44442828101028284444EE0000000020
:1044F000EE44442828281010101010380000000046
:104500007E44840808102020408284FC0000001CA7
:104510001010101010101010101010101C000000BF
:10452000EE445454FE5454542828282800000070A7
:10453000101010101010101010101010700000301B
:10454000488400000000000000000000000000009F
:10455000000000000000000000000000FE0000401D
:10456000200000000000000000000000000000002B
:10457000000000007884047C84848C7600000000B5
:10458000C04040405864424242426458000000002B
:104590000000000038448080808044380000000023
:1045A0000C040404344C848484844C3600000000E1
:1045B00000000000788484FC808084780000000083
:1045C00018242020F8202020202020700000000047
:1045D000000000003A444478807C82827C00000025
:1045E000C040404058644444444444EE000000004D
:1045F00010100000301010101010103800000000D3
:10460000101000003010101010101090600000000A
:10461000C04040405C485060504844EE00000000FC
:104620003010101010111010101010390000000080
:1046300000000000ACD29292929292D6000000004C
:104640000000000058E44444444444EE00000000EC
:10465000000000003844828282824438000000005A
:1046600000000000D864424242645840E00000006C
:1046700000000000364C8484844C34040E0000009A
:10468000000000006C30202020202070000000007E
:1046900000000000788884601884447800000000DE
:1046A00000202020F82020202020241800000000D6
:1046B00000000000C64242424242463A000000006A
:1046C00000000000EE4444282828101000000000DC
:1046D00000000000EE444454542828280000000044
:1046E00000000000EE442810102844EE00000000F6
:1046F00000000000EE444428281010A0C000000074
:10470000000000007E448810204284FC0000000C61
:104710001010101010601010101010100C0000106D
:10472000101010101010101010101010100000C0F9
:10473000202020202018202020202020C000000041
:104740000000000000728C0000000000000000006B
:10475000000000001FE000003FF000003FF00000FC
:104760001FE0000180060003C00F0003C00F00031C
:10477000C00F0003C00F0003C00F0003C00F0003F1
:10478000C00F0003C00F0003000300000000000082
:10479000000000000000000300030003C00F00033E
:1047A000C00F0003C00F0003C00F0003C00F0003C1
:1047B000C00F0003C00F0003C00F000180060000FF
:1047C0001FE000003FF000003FF000001FE000008D
:1047D00000000000000000000080000001800000D8
:1047E00003800000078000000780000007800000B1
:1047F000078000000780000007800000078000009D
:104800000780000007800000018000000000000019
:104810000000000000000000018000000780000090
:10482000078000000780000007800000078000006C
:10483000078000000780000007800000078000005C
:1048400003800000018000000080000000000000E4
:10485000000000001FE000003FF00000FFF000013A
:10486000FFE0000000060000000F0000000F000045
:10487000000F0000000F0000000F0000000F0000FC
:10488000000F0000000F00001FE300007FF8000091
:104890007FF800001FE0000300000003C0000003D9
:1048A000C0000003C0000003C0000003C0000003FC
:1048B000C0000003C0000003C00000018000000031
:1048C0001FF000003FF800003FFC00001FFE00004A
:1048D00000000003FF800001FFC00000FFC00000D7
:1048E0007F80000000180000003C0000003C000039
:1048F000003C0000003C0000003C0000003C0000C8
:10490000003C0000003C00007F8C0001FFE0000143
:10491000FFF000007F800000000C0000003C000061
:10492000003C0000003C0000003C0000003C000097
:10493000003C0000003C0000003C000000180000AB
:104940007F800000FFC00001FFC00003FF80000067
:10495000000000000000000200010003000300034B
:1049600080070003C00F0003C00F0003C00F000347
:10497000C00F0003C00F0003C00F0003C00F0003EF
:10498000C00F0003C00F00031FE300007FF800000A
:104990007FFC00001FE0000000030000000F00008B
:1049A000000F0000000F0000000F0000000F0000CB
:1049B000000F0000000F0000000F0000000F0000BB
:1049C00000070000000300000001000000000000DC
:1049D000000000001FFC00003FF800003FF0000056
:1049E0001FE0000180000003C0000003C0000003BE
:1049F000C0000003C0000003C0000003C0000003AB
:104A0000C0000003C00000031FE000007FF80000AA
:104A10007FF800001FE0000000030000000F00000E
:104A2000000F0000000F0000000F0000000F00004A
:104A3000000F0000000F0000000F00000006000043
:104A40003FE000007FF00000FFF00001FFE0000009
:104A5000000000001FFC00003FF800003FF00000D5
:104A60001FE0000180000003C0000003C00000033D
:104A7000C0000003C0000003C0000003C00000032A
:104A8000C0000003C00000031FE000007FF800002A
:104A90007FFC00001FE0000300030003C00F0003C1
:104AA000C00F0003C00F0003C00F0003C00F0003BE
:104AB000C00F0003C00F0003C00F000180060000FC
:104AC0001FE000003FF000003FF000001FE000008A
:104AD00000000007FFE00003FFC00001FF880000A6
:104AE000FF18000000380000007800000078000087
:104AF00000780000007800000078000000780000D6
:104B0000007800000078000000180000000000009D
:104B10000000000000000000001800000078000005
:104B200000780000007800000078000000780000A5
:104B30000078000000780000007800000078000095
:104B4000003800000018000000080000000000000D
:104B5000000000001FE000003FF000003FF00000F8
:104B60001FE0000180060003C00F0003C00F000318
:104B7000C00F0003C00F0003C00F0003C00F0003ED
:104B8000C00F0003C00F00031FE300007FF8000008
:104B90007FFC00001FE0000300030003C00F0003C0
:104BA000C00F0003C00F0003C00F0003C00F0003BD
:104BB000C00F0003C00F0003C00F000180060000FB
:104BC0001FE000003FF000003FF000001FE0000089
:104BD000000000001FE000003FF000003FF0000078
:104BE0001FE0000180060003C00F0003C00F000398
:104BF000C00F0003C00F0003C00F0003C00F00036D
:104C0000C00F0003C00F00031FE300007FF8000087
:104C10007FFC00001FE0000000030000000F000008
:104C2000000F0000000F0000000F0000000F000048
:104C3000000F0000000F0000000F00000006000041
:104C40001FE000003FF000007FF00000FFE00000E8
:104C50000000000000000000000000000000000054
:104C60000000000000000000000000000000000044
:104C70000000000000000000000000000000000034
:104C80000000000000000000000000000000000024
:104C90000000000000000000000000000000000014
:104CA000000000007800000078000000780000009C
:104CB000780000007800000078000000000000008C
:104CC00000000000000000000000000000000000E4
:104CD00000000000000000000000000000000000D4
:104CE00000000000000000000000000000000000C4
:104CF000070000000F8000000F8000000F80000000
:104D0000070000000000000000000000000000009C
:104D1000000000000000000000000000070000008C
:104D20000F8000000F8000000F80000007000000CF
:104D30000000000000000000000000000000000073
:104D40000000000000000000000000000000000063
:104D5000000000000000000000000000000000074C
:104D6000C006000FE0060000000C003018180030EC
:104D7000181800301830003018300030186000303B
:104D800008C00007C0C0000FE08000000000000065
:104D9000000FE0000607C000063018000C301800B5
:104DA0000C3018001830180030301800303018005F
:104DB00060000000C00FE000C007C000000000005D
:104DC00000000000000000000000000000000000E3
:104DD00000000000000000000000000000000000D3
:104DE000000000000000000700E0000887FC000849
:104DF0008E03000898018007180080003000000032
:104E00003000000070000000600000006000000042
:104E10006000000060000000600000007000000002
:104E200030000000300000003800000018010000D1
:104E30000C03000007FC000001F00000000000006F
:104E40000000000000000000000000000000000062
:104E50000000000000000000000000000000000052
:104E60000000000000000000000000000000000042
:104E70000000000000000000000000000000000032
:104E80000000000000000000000000003FF00000F3
:104E90007FF000007FE00000FFC000000000000085
:104EA0000000000000000000000000000000000002
:104EB00000000000000000000000000000000000F2
:104EC00000000000000000000000000000000000E2
:104ED000B5E70200020002007FF0421042107FF0AE
:104EE000421042107FF042000208020801F8000060
:104EF0000000D7D37FF000200040008001000200B6
:104F0000FFF80200020002000200020002000E0090
:104F100000000000C8AB010001000280044008202E
:104F200010102FE8C106010001001FF00100010070
:104F300001007FFC0000B6AF004000407C40004014
:104F400001FC0044FE4420442044208448844484DE
:104F5000FD04450402280410BCBC102010201020C1
:104F600013FEFC201020102015FC18843088D04837
:104F700010501020105051882606CAF5010001205B
:104F8000011001107FFC038005400540092011102D
:104F9000210841040102010001000100D2BA008091
:104FA000404027F8114001408278424816A81AD0A4
:104FB0002350222042204250028800000000BEA759
:104FC0003FE020203FE020203FE00000FDF8850882
:104FD0008508FDF885088508FDF8850800000000B3
:104FE000B2E200084F8828880AA88AA84AA80AA816
:104FF0002AA82AA8422845088488888810380000F2
:105000000000CAD44050204820400FF80040E04043
:1050100027402240224022202A2833A82E180008A8
:1050200000000000B3CC00001BF0E210221023F0BF
:10503000F800200033F068806080A3F0208020809A
:1050400027F800000000D0F2020001003FF8200025
:105050002FF02020224021803FF82088209040809F
:105060004080838000000000D1D5200010F87E2011
:10507000444028F87E8848A850A864A848A872A888
:1050800084501888610800000000C9AB10001000AF
:105090003FE0404080807FF04210421042107FF09D
:1050A0004000400840083FF800000000CCEE20809F
:1050B0002FF8208027F0F41027F0241027F0241078
:1050C00027F03410CFF80220041000000000B3E4F1
:1050D00004000200FFF80800104020207FF0089034
:1050E00008800880088010882088C07800000000B0
:1050F000CEC4040002000200FFF8104010400880F7
:10510000088005000200050008803060C01800001B
:105110000000D7D604000200FFF8800880083FC0D6
:10512000008001000200FFF80200020002000E00F1
:1051300000000000CFD43FE0202020203FE02020CE
:1051400020203FE008804890289028A00880088010
:10515000FFF800000000CABE00003FE000000000B1
:105160000000FFF8020012401220221042088208BC
:1051700002000E0000000000CDBC7FF8400844088B
:1051800047C84848548843084CC8733840884C087E
:10519000430840887FF800000000C6AC00802080F3
:1051A000208020803FF02000200020003FC02040D1
:1051B000204020404040804000000000B4A5204036
:1051C0003840484091F07D50555055507D5055F035
:1051D00054407C40545057F88C0800000000C3FE37
:1051E0002220222027F8FA2027F0241027F034105C
:1051F000E7F020802FF821402220EC18000000006A
:10520000CAE440804140F22044108BE8A000F788B7
:1052100024A827A834A8E7A824A8248825B8000033
:105220000000C8EB080004000400020002000500B2
:1052300005000880088010401040202040108008A1
:1052400000000000C8AB020002000500088010400A
:105250002020DFD8020002001FC00200020002006E
:10526000FFF800000000B3CC00001BF0E210221099
:1052700023F0F800200033F068806080A3F02080E5
:10528000208027F800000000BCBC20802080208007
:10529000F7F02080208027E03220E220214020808B
:1052A00021402220EC1800000000CAF50200024054
:1052B00002200200FFF807000A800A801240222024
:1052C000421082080200020000000000D6A702007F
:1052D0000200FFF8020002007FE01020104008806A
:1052E00005000200050018C0E03800000000B3D639
:1052F0002080208023F0F880208027F8282030208C
:10530000E7F82020222021202020E0E000000000FB
:10531000D7A8020002007FF004000400FFF8080094
:1053200010003FE0002000401C80030000800000CF
:105330000000D7A201004080200017F0008080808C
:105340004080008017F010802080208040804FF83F
:1053500000000000C5FA204024402440F4482450B6
:10536000276024403440E440244024402548264817
:10537000E43800000000B7A20200222022104400FE
:105380007FF8040008000FE01420244042808100D0
:1053900006C0383800000000B3C900A000900080AB
:1053A0007FF8408040907C90449044A044A04448C2
:1053B00058A84118820800000000B9A601000100A9
:1053C000F90023F021102110211021102110391093
:1053D000C21002100410086000000000D2C60000D5
:1053E000002000780CE47904516810307E60199830
:1053F0001A3C2FE448E40838003000600000D1A1D6
:1054000000000120012003FC62203420042003FC62
:10541000240021B021202220323E18000FE000009D
:10542000D4F10000000010FC1304110C3DF8703E94
:1054300010D015907CF0503E18101BFE023000205A
:105440000000CFEE0000000003FE00607C4012FC74
:1054500011041106113611241F44794400C0009C28
:1054600001860000C4BF000000000FE03C182008C7
:1054700020043E04600460047E046004200C2008C4
:105480001FF001800000B6CC0000080011FC103EA7
:105490003EF82D8C2904490409043E8C50FC1088E8
:1054A0001EC811FC100E0000B0B4000000400060E7
:1054B00012FE13023A427F4410C41BFE3C987190C6
:1054C000113011A00078004C0000C8B70000004067
:1054D00000F878C41F8C313821EC2126413A7DE256
:1054E000272225FA3D26012401040000B6A8000069
:1054F000010001705FFC700420042FF8010011000E
:10550000113821C431003F0063E040380000B3A4EB
:10551000000000000818086008C00B001E00181CDE
:105520007FF01000118010E01838098E0F00000085
:10553000B0B400000040006012FE13023A427F4403
:1055400010C41BFE3C987190113011A00078004CE3
:105550000000B7B50000000007F80600240014F8AA
:10556000078C04042408261825F0647C64C220807B
:105570001FC00000BBD8000000001FF0301820083A
:10558000278C2C44284428442CC427842004300C25
:105590001FF8038000000000000000000000000071
:1055A00000000000000000000000000000000000FB
:1055B0000000000000000000B4BF00000000000078
:1055C000020100063FC00C3FE01803001002003348
:1055D00036603726203E66301C643018642031FE69
:1055E000E03F1FC01C0C00000C000704003E07F049
:1055F0000001C000000000000000000000000000EA
:105600000000C9AB00000000000001FE0003E30041
:105610000703000C03001C3F003BFFC03F30600C41
:1056200030200C30200C10200C10600FFFC0083F01
:10563000000800000800600E3FE007FC00000000CA
:10564000000000000000000000000000CCEE0000A0
:105650000000000000030000FFE00C07F00C060053
:105660000CFF803FF0E01FC0600CFE300CCC30041B
:10567000F83004FF2004C0201FFE603EC06001FF20
:10568000F001FFF00060600040000000000000003A
:10569000000000000000B3E4000000000000002053
:1056A0000000300007FFF03FFFE00300000601802C
:1056B0000C01800801C01807E00FFE7007E000022F
:1056C00006000604000404000404000C06700C0725
:1056D000E0000000000000000000000000000000EA
:1056E000B2E200000000000000003039FC301FCCA6
:1056F000300706B00F06F01907B03137B03136F079
:105700001F27F00167F001E5F001E1F00041F00C26
:10571000F8B03CD830008C30008030000000000031
:1057200000000000000000000000CAD400000000DB
:1057300000000803600C03700C0330003FE0003FE2
:10574000800801003C0180047F80047D800C008083
:105750000C10C00C10C00C18400C1C600F7E6006B2
:105760007030000030000000000000000000000069
:1057700000000000CEC400000000C00000E00000F7
:10578000700001FFE01FFFC01801000003000006C9
:1057900000000E00001C000E180007300001E000A1
:1057A00000F00000FC00018F000303C00201E000D4
:1057B0000000000000000000000000000000D7D63C
:1057C000000000000000002000003F0031FFE03F2B
:1057D000C02038003030FE2033C660100200000CBC
:1057E00000001800001800000C0007FFE03FFFE079
:1057F000000400000C00000C00000000000000008D
:105800000000000000000000CFD4000000000000F5
:1058100007FF000F03C00C00401FF860180060086D
:1058200000400E01C007FF00000000018400018459
:10583000001987800F8CE0078C2000CC0003FFE06C
:105840001FFFC0000000000000000000000000007A
:105850000000CABE0000000000000E00001FFFC0D4
:10586000007FE000000000000000000000000000D9
:105870003FC03FFFE0003000003000003000061362
:10588000000C13C00C18F0181800181800000000C5
:10589000000000000000000000000000CDBC00007F
:1058A0000000000007FF000F03801CC0C019FC604F
:1058B00011C66033062033E63036FF30301FF0303B
:1058C000703030FC30339F3036002010E060187CA0
:1058D000400E01C003FF000038000000000000007F
:1058E000000000000000C6AC000000000000081826
:1058F00000180800180800180800180C201FFFF0F6
:105900001FF80018000010000010F8001FFE001E15
:10591000030010030010030010030010030018021E
:105920000000000000000000000000000000000077
:10593000CFD400000000000007FF000F03C00C00E0
:10594000401FF8601800600800400E01C007FF000B
:105950000000000184000184001987800F8CE0079B
:105960008C2000CC0003FFE01FFFC00000000000FF
:1059700000000000000000000000CABE000000009F
:1059800000000E00001FFFC0007FE00000000000CC
:1059900000000000000000003FC03FFFE0003000BA
:1059A0000030000030000613000C13C00C18F01873
:1059B000180018180000000000000000000000009F
:1059C00000000000B4A50000000000000601800FE8
:1059D000C1801E6180304FC020CFE0078D303FC9AD
:1059E000303379303379303FFB3037FF203267E096
:1059F0003FE3803FE3C03263603267F0304FB00076
:105A00000000000000000000000000000000C3FED5
:105A10000000000000000030C000FFF00C79C00C56
:105A20001F800C7FE03FE0600CC0300CFC3004C0F5
:105A30003007C0301E60603C3FC0041C00047FE0A3
:105A400000FFE00030C000606000000000000000C7
:105A50000000000000000000CAE400000000000098
:105A60000C03800C0FC0081C703F70001F9FC010FB
:105A70001FC0100000367C3017E6301FE3B0067FF1
:105A8000B00277F007E3F03F7FF01336F0032630E3
:105A900003263000000000000000000000000000AD
:105AA0000000C8EB000000000000060000038000BA
:105AB00001C00000E00000700000780000CC000091
:105AC000C6000183000301800700C00600E00C004F
:105AD00070180030180000300000000000000000C6
